{"abi":[{"type":"constructor","inputs":[{"name":"_name","type":"string","internalType":"string"},{"name":"_symbol","type":"string","internalType":"string"},{"name":"_uri","type":"string","internalType":"string"}],"stateMutability":"nonpayable"},{"type":"function","name":"balanceOf","inputs":[{"name":"account","type":"address","internalType":"address"},{"name":"id","type":"uint256","internalType":"uint256"}],"outputs":[{"name":"","type":"uint256","internalType":"uint256"}],"stateMutability":"view"},{"type":"function","name":"balanceOfBatch","inputs":[{"name":"accounts","type":"address[]","internalType":"address[]"},{"name":"ids","type":"uint256[]","internalType":"uint256[]"}],"outputs":[{"name":"","type":"uint256[]","internalType":"uint256[]"}],"stateMutability":"view"},{"type":"function","name":"bulkSetTraitLimit","inputs":[{"name":"tokenIds","type":"uint256[]","internalType":"uint256[]"},{"name":"limits","type":"uint256[]","internalType":"uint256[]"}],"outputs":[],"stateMutability":"nonpayable"},{"type":"function","name":"burn","inputs":[{"name":"account","type":"address","internalType":"address"},{"name":"id","type":"uint256","internalType":"uint256"},{"name":"value","type":"uint256","internalType":"uint256"}],"outputs":[],"stateMutability":"nonpayable"},{"type":"function","name":"exists","inputs":[{"name":"id","type":"uint256","internalType":"uint256"}],"outputs":[{"name":"","type":"bool","internalType":"bool"}],"stateMutability":"view"},{"type":"function","name":"isApprovedForAll","inputs":[{"name":"account","type":"address","internalType":"address"},{"name":"operator","type":"address","internalType":"address"}],"outputs":[{"name":"","type":"bool","internalType":"bool"}],"stateMutability":"view"},{"type":"function","name":"isMinter","inputs":[{"name":"","type":"address","internalType":"address"}],"outputs":[{"name":"","type":"bool","internalType":"bool"}],"stateMutability":"view"},{"type":"function","name":"mint","inputs":[{"name":"to","type":"address","internalType":"address"},{"name":"tokenId","type":"uint256","internalType":"uint256"},{"name":"amount","type":"uint256","internalType":"uint256"}],"outputs":[],"stateMutability":"nonpayable"},{"type":"function","name":"mintBatch","inputs":[{"name":"to","type":"address","internalType":"address"},{"name":"ids","type":"uint256[]","internalType":"uint256[]"},{"name":"amounts","type":"uint256[]","internalType":"uint256[]"}],"outputs":[],"stateMutability":"nonpayable"},{"type":"function","name":"name","inputs":[],"outputs":[{"name":"","type":"string","internalType":"string"}],"stateMutability":"view"},{"type":"function","name":"owner","inputs":[],"outputs":[{"name":"","type":"address","internalType":"address"}],"stateMutability":"view"},{"type":"function","name":"renounceOwnership","inputs":[],"outputs":[],"stateMutability":"nonpayable"},{"type":"function","name":"safeBatchTransferFrom","inputs":[{"name":"from","type":"address","internalType":"address"},{"name":"to","type":"address","internalType":"address"},{"name":"ids","type":"uint256[]","internalType":"uint256[]"},{"name":"amounts","type":"uint256[]","internalType":"uint256[]"},{"name":"data","type":"bytes","internalType":"bytes"}],"outputs":[],"stateMutability":"nonpayable"},{"type":"function","name":"safeTransferFrom","inputs":[{"name":"from","type":"address","internalType":"address"},{"name":"to","type":"address","internalType":"address"},{"name":"id","type":"uint256","internalType":"uint256"},{"name":"amount","type":"uint256","internalType":"uint256"},{"name":"data","type":"bytes","internalType":"bytes"}],"outputs":[],"stateMutability":"nonpayable"},{"type":"function","name":"setApprovalForAll","inputs":[{"name":"operator","type":"address","internalType":"address"},{"name":"approved","type":"bool","internalType":"bool"}],"outputs":[],"stateMutability":"nonpayable"},{"type":"function","name":"setIsMinter","inputs":[{"name":"operator","type":"address","internalType":"address"},{"name":"status","type":"bool","internalType":"bool"}],"outputs":[],"stateMutability":"nonpayable"},{"type":"function","name":"setTraitLimit","inputs":[{"name":"tokenId","type":"uint256","internalType":"uint256"},{"name":"limit","type":"uint256","internalType":"uint256"}],"outputs":[],"stateMutability":"nonpayable"},{"type":"function","name":"setURI","inputs":[{"name":"baseURI","type":"string","internalType":"string"}],"outputs":[],"stateMutability":"nonpayable"},{"type":"function","name":"supportsInterface","inputs":[{"name":"interfaceId","type":"bytes4","internalType":"bytes4"}],"outputs":[{"name":"","type":"bool","internalType":"bool"}],"stateMutability":"view"},{"type":"function","name":"symbol","inputs":[],"outputs":[{"name":"","type":"string","internalType":"string"}],"stateMutability":"view"},{"type":"function","name":"totalSupply","inputs":[{"name":"id","type":"uint256","internalType":"uint256"}],"outputs":[{"name":"","type":"uint256","internalType":"uint256"}],"stateMutability":"view"},{"type":"function","name":"traitLimit","inputs":[{"name":"","type":"uint256","internalType":"uint256"}],"outputs":[{"name":"","type":"uint256","internalType":"uint256"}],"stateMutability":"view"},{"type":"function","name":"transferOwnership","inputs":[{"name":"newOwner","type":"address","internalType":"address"}],"outputs":[],"stateMutability":"nonpayable"},{"type":"function","name":"uri","inputs":[{"name":"_id","type":"uint256","internalType":"uint256"}],"outputs":[{"name":"","type":"string","internalType":"string"}],"stateMutability":"view"},{"type":"event","name":"ApprovalForAll","inputs":[{"name":"account","type":"address","indexed":true,"internalType":"address"},{"name":"operator","type":"address","indexed":true,"internalType":"address"},{"name":"approved","type":"bool","indexed":false,"internalType":"bool"}],"anonymous":false},{"type":"event","name":"Minted","inputs":[{"name":"tokenId","type":"uint256","indexed":false,"internalType":"uint256"},{"name":"amount","type":"uint256","indexed":false,"internalType":"uint256"},{"name":"to","type":"address","indexed":false,"internalType":"address"},{"name":"operator","type":"address","indexed":false,"internalType":"address"}],"anonymous":false},{"type":"event","name":"MintedBatch","inputs":[{"name":"ids","type":"uint256[]","indexed":false,"internalType":"uint256[]"},{"name":"amounts","type":"uint256[]","indexed":false,"internalType":"uint256[]"},{"name":"to","type":"address","indexed":false,"internalType":"address"},{"name":"operator","type":"address","indexed":false,"internalType":"address"}],"anonymous":false},{"type":"event","name":"OwnershipTransferred","inputs":[{"name":"previousOwner","type":"address","indexed":true,"internalType":"address"},{"name":"newOwner","type":"address","indexed":true,"internalType":"address"}],"anonymous":false},{"type":"event","name":"TransferBatch","inputs":[{"name":"operator","type":"address","indexed":true,"internalType":"address"},{"name":"from","type":"address","indexed":true,"internalType":"address"},{"name":"to","type":"address","indexed":true,"internalType":"address"},{"name":"ids","type":"uint256[]","indexed":false,"internalType":"uint256[]"},{"name":"values","type":"uint256[]","indexed":false,"internalType":"uint256[]"}],"anonymous":false},{"type":"event","name":"TransferSingle","inputs":[{"name":"operator","type":"address","indexed":true,"internalType":"address"},{"name":"from","type":"address","indexed":true,"internalType":"address"},{"name":"to","type":"address","indexed":true,"internalType":"address"},{"name":"id","type":"uint256","indexed":false,"internalType":"uint256"},{"name":"value","type":"uint256","indexed":false,"internalType":"uint256"}],"anonymous":false},{"type":"event","name":"URI","inputs":[{"name":"value","type":"string","indexed":false,"internalType":"string"},{"name":"id","type":"uint256","indexed":true,"internalType":"uint256"}],"anonymous":false}],"bytecode":{"object":"0x60806040523480156200001157600080fd5b5060405162002a7c38038062002a7c83398101604081905262000034916200019f565b80620000408162000073565b506200004c3362000085565b60056200005a8482620002c1565b506006620000698382620002c1565b505050506200038d565b6002620000818282620002c1565b5050565b600480546001600160a01b038381166001600160a01b0319831681179093556040519116919082907f8be0079c531659141344cd1fd0a4f28419497f9722a3daafe3b4186f6b6457e090600090a35050565b634e487b7160e01b600052604160045260246000fd5b600082601f830112620000ff57600080fd5b81516001600160401b03808211156200011c576200011c620000d7565b604051601f8301601f19908116603f01168101908282118183101715620001475762000147620000d7565b81604052838152602092508660208588010111156200016557600080fd5b600091505b838210156200018957858201830151818301840152908201906200016a565b6000602085830101528094505050505092915050565b600080600060608486031215620001b557600080fd5b83516001600160401b0380821115620001cd57600080fd5b620001db87838801620000ed565b94506020860151915080821115620001f257600080fd5b6200020087838801620000ed565b935060408601519150808211156200021757600080fd5b506200022686828701620000ed565b9150509250925092565b600181811c908216806200024557607f821691505b6020821081036200026657634e487b7160e01b600052602260045260246000fd5b50919050565b601f821115620002bc576000816000526020600020601f850160051c81016020861015620002975750805b601f850160051c820191505b81811015620002b857828155600101620002a3565b5050505b505050565b81516001600160401b03811115620002dd57620002dd620000d7565b620002f581620002ee845462000230565b846200026c565b602080601f8311600181146200032d5760008415620003145750858301515b600019600386901b1c1916600185901b178555620002b8565b600085815260208120601f198616915b828110156200035e578886015182559484019460019091019084016200033d565b50858210156200037d5787850151600019600388901b60f8161c191681555b5050505050600190811b01905550565b6126df806200039d6000396000f3fe608060405234801561001057600080fd5b50600436106101575760003560e01c8063715018a6116100c3578063d81d0a151161007c578063d81d0a1514610304578063e0a6bcdb14610317578063e985e9c514610337578063f242432a14610373578063f2fde38b14610386578063f5298aca1461039957600080fd5b8063715018a6146102835780638da5cb5b1461028b57806395d89b41146102a6578063a22cb465146102ae578063aa271e1a146102c1578063bd85b039146102e457600080fd5b80632eb2c2d6116101155780632eb2c2d6146101f55780632fb413bd146102085780634e1273f41461021b5780634f558e791461023b578063540d22cf1461025d57806366eb399f1461027057600080fd5b8062fdd58e1461015c57806301ffc9a71461018257806302fe5305146101a557806306fdde03146101ba5780630e89341c146101cf578063156e29f6146101e2575b600080fd5b61016f61016a366004611ac1565b6103ac565b6040519081526020015b60405180910390f35b610195610190366004611b01565b610445565b6040519015158152602001610179565b6101b86101b3366004611bc4565b610495565b005b6101c26104a9565b6040516101799190611c64565b6101c26101dd366004611c77565b61053b565b6101b86101f0366004611c90565b6105cb565b6101b8610203366004611d7c565b61071f565b6101b8610216366004611e70565b61076b565b61022e610229366004611edb565b61081e565b6040516101799190611fe1565b610195610249366004611c77565b600090815260036020526040902054151590565b6101b861026b366004611ff4565b61093f565b6101b861027e366004612016565b610959565b6101b861098c565b6004546040516001600160a01b039091168152602001610179565b6101c26109a0565b6101b86102bc366004612016565b6109af565b6101956102cf366004612052565b60086020526000908152604090205460ff1681565b61016f6102f2366004611c77565b60009081526003602052604090205490565b6101b861031236600461206d565b6109be565b61016f610325366004611c77565b60076020526000908152604090205481565b6101956103453660046120e0565b6001600160a01b03918216600090815260016020908152604080832093909416825291909152205460ff1690565b6101b8610381366004612113565b610a6d565b6101b8610394366004612052565b610ab2565b6101b86103a7366004611c90565b610b28565b60006001600160a01b03831661041c5760405162461bcd60e51b815260206004820152602a60248201527f455243313135353a2061646472657373207a65726f206973206e6f742061207660448201526930b634b21037bbb732b960b11b60648201526084015b60405180910390fd5b506000818152602081815260408083206001600160a01b03861684529091529020545b92915050565b60006001600160e01b03198216636cdb3d1360e11b148061047657506001600160e01b031982166303a24d0760e21b145b8061043f57506301ffc9a760e01b6001600160e01b031983161461043f565b61049d610b70565b6104a681610bca565b50565b6060600580546104b890612177565b80601f01602080910402602001604051908101604052809291908181526020018280546104e490612177565b80156105315780601f1061050657610100808354040283529160200191610531565b820191906000526020600020905b81548152906001019060200180831161051457829003601f168201915b5050505050905090565b6000818152600360205260409020546060906105925760405162461bcd60e51b81526020600482015260166024820152752aa9249d103737b732bc34b9ba32b73a103a37b5b2b760511b6044820152606401610413565b61059b82610bd6565b6105a483610c6a565b6040516020016105b59291906121b1565b6040516020818303038152906040529050919050565b3360009081526008602052604090205460ff1661062a5760405162461bcd60e51b815260206004820152601c60248201527f4d696e743a204e6f7420617574686f72697a656420746f206d696e74000000006044820152606401610413565b600082815260076020526040902054156106ac5760008281526007602090815260408083205460039092529091205461066390836121e0565b11156106ac5760405162461bcd60e51b8152602060048201526018602482015277135a5b9d0e88115e18d95959081d1c985a5d081b1a5b5a5d60421b6044820152606401610413565b6106c783838360405180602001604052806000815250610cfc565b60408051838152602081018390526001600160a01b038516918101919091523360608201527f433b76441e18c222fc492f65a3b0588e67167e45e4450e02b14c22d5aac5fe56906080015b60405180910390a1505050565b6001600160a01b03851633148061073b575061073b8533610345565b6107575760405162461bcd60e51b815260040161041390612201565b6107648585858585610de5565b5050505050565b610773610b70565b8281146107c25760405162461bcd60e51b815260206004820152601d60248201527f62756c6b53657454726169743a206c656e677468206d69736d617463680000006044820152606401610413565b60005b83811015610764578282828181106107df576107df61224f565b90506020020135600760008787858181106107fc576107fc61224f565b60209081029290920135835250810191909152604001600020556001016107c5565b606081518351146108835760405162461bcd60e51b815260206004820152602960248201527f455243313135353a206163636f756e747320616e6420696473206c656e677468604482015268040dad2e6dac2e8c6d60bb1b6064820152608401610413565b600083516001600160401b0381111561089e5761089e611b25565b6040519080825280602002602001820160405280156108c7578160200160208202803683370190505b50905060005b8451811015610937576109128582815181106108eb576108eb61224f565b60200260200101518583815181106109055761090561224f565b60200260200101516103ac565b8282815181106109245761092461224f565b60209081029190910101526001016108cd565b509392505050565b610947610b70565b60009182526007602052604090912055565b610961610b70565b6001600160a01b03919091166000908152600860205260409020805460ff1916911515919091179055565b610994610b70565b61099e6000610f88565b565b6060600680546104b890612177565b6109ba338383610fda565b5050565b3360009081526008602052604090205460ff16610a1d5760405162461bcd60e51b815260206004820152601c60248201527f4d696e743a204e6f7420617574686f72697a656420746f206d696e74000000006044820152606401610413565b610a38838383604051806020016040528060008152506110ba565b7ff36d8cbebfcac71d1fcb485fa591caaa27217c7fdffd9af73ea652cedf433038828285336040516107129493929190612265565b6001600160a01b038516331480610a895750610a898533610345565b610aa55760405162461bcd60e51b815260040161041390612201565b61076485858585856111df565b610aba610b70565b6001600160a01b038116610b1f5760405162461bcd60e51b815260206004820152602660248201527f4f776e61626c653a206e6577206f776e657220697320746865207a65726f206160448201526564647265737360d01b6064820152608401610413565b6104a681610f88565b6001600160a01b038316331480610b445750610b448333610345565b610b605760405162461bcd60e51b815260040161041390612201565b610b6b838383611317565b505050565b6004546001600160a01b0316331461099e5760405162461bcd60e51b815260206004820181905260248201527f4f776e61626c653a2063616c6c6572206973206e6f7420746865206f776e65726044820152606401610413565b60026109ba82826122f7565b606060028054610be590612177565b80601f0160208091040260200160405190810160405280929190818152602001828054610c1190612177565b8015610c5e5780601f10610c3357610100808354040283529160200191610c5e565b820191906000526020600020905b815481529060010190602001808311610c4157829003601f168201915b50505050509050919050565b60606000610c77836114a7565b60010190506000816001600160401b03811115610c9657610c96611b25565b6040519080825280601f01601f191660200182016040528015610cc0576020820181803683370190505b5090508181016020015b600019016f181899199a1a9b1b9c1cb0b131b232b360811b600a86061a8153600a8504945084610cca57509392505050565b6001600160a01b038416610d225760405162461bcd60e51b8152600401610413906123b6565b336000610d2e8561157f565b90506000610d3b8561157f565b9050610d4c836000898585896115ca565b6000868152602081815260408083206001600160a01b038b16845290915281208054879290610d7c9084906121e0565b909155505060408051878152602081018790526001600160a01b03808a1692600092918716917fc3d58168c5ae7397731d063d5bbf3d657854427343f4c083240f7aacaa2d0f62910160405180910390a4610ddc836000898989896115d8565b50505050505050565b8151835114610e065760405162461bcd60e51b8152600401610413906123f7565b6001600160a01b038416610e2c5760405162461bcd60e51b81526004016104139061243f565b33610e3b8187878787876115ca565b60005b8451811015610f1a576000858281518110610e5b57610e5b61224f565b602002602001015190506000858381518110610e7957610e7961224f565b602090810291909101810151600084815280835260408082206001600160a01b038e168352909352919091205490915081811015610ec95760405162461bcd60e51b815260040161041390612484565b6000838152602081815260408083206001600160a01b038e8116855292528083208585039055908b16825281208054849290610f069084906121e0565b909155505060019093019250610e3e915050565b50846001600160a01b0316866001600160a01b0316826001600160a01b03167f4a39dc06d4c0dbc64b70af90fd698a233a518aa5d07e595d983b8c0526c8f7fb8787604051610f6a9291906124ce565b60405180910390a4610f80818787878787611733565b505050505050565b600480546001600160a01b038381166001600160a01b0319831681179093556040519116919082907f8be0079c531659141344cd1fd0a4f28419497f9722a3daafe3b4186f6b6457e090600090a35050565b816001600160a01b0316836001600160a01b03160361104d5760405162461bcd60e51b815260206004820152602960248201527f455243313135353a2073657474696e6720617070726f76616c20737461747573604482015268103337b91039b2b63360b91b6064820152608401610413565b6001600160a01b03838116600081815260016020908152604080832094871680845294825291829020805460ff191686151590811790915591519182527f17307eab39ab6107e8899845ad3d59bd9653f200f220920489ca2b5937696c31910160405180910390a3505050565b60005b83518110156111cc576000600760008684815181106110de576110de61224f565b602002602001015181526020019081526020016000205411156111c457600760008583815181106111115761111161224f565b602002602001015181526020019081526020016000205461115785838151811061113d5761113d61224f565b602002602001015160009081526003602052604090205490565b8483815181106111695761116961224f565b602002602001015161117b91906121e0565b11156111c45760405162461bcd60e51b8152602060048201526018602482015277135a5b9d0e88115e18d95959081d1c985a5d081b1a5b5a5d60421b6044820152606401610413565b6001016110bd565b506111d9848484846117ee565b50505050565b6001600160a01b0384166112055760405162461bcd60e51b81526004016104139061243f565b3360006112118561157f565b9050600061121e8561157f565b905061122e8389898585896115ca565b6000868152602081815260408083206001600160a01b038c1684529091529020548581101561126f5760405162461bcd60e51b815260040161041390612484565b6000878152602081815260408083206001600160a01b038d8116855292528083208985039055908a168252812080548892906112ac9084906121e0565b909155505060408051888152602081018890526001600160a01b03808b16928c821692918816917fc3d58168c5ae7397731d063d5bbf3d657854427343f4c083240f7aacaa2d0f62910160405180910390a461130c848a8a8a8a8a6115d8565b505050505050505050565b6001600160a01b0383166113795760405162461bcd60e51b815260206004820152602360248201527f455243313135353a206275726e2066726f6d20746865207a65726f206164647260448201526265737360e81b6064820152608401610413565b3360006113858461157f565b905060006113928461157f565b90506113b2838760008585604051806020016040528060008152506115ca565b6000858152602081815260408083206001600160a01b038a1684529091529020548481101561142f5760405162461bcd60e51b8152602060048201526024808201527f455243313135353a206275726e20616d6f756e7420657863656564732062616c604482015263616e636560e01b6064820152608401610413565b6000868152602081815260408083206001600160a01b038b81168086529184528285208a8703905582518b81529384018a90529092908816917fc3d58168c5ae7397731d063d5bbf3d657854427343f4c083240f7aacaa2d0f62910160405180910390a4604080516020810190915260009052610ddc565b60008072184f03e93ff9f4daa797ed6e38ed64bf6a1f0160401b83106114e65772184f03e93ff9f4daa797ed6e38ed64bf6a1f0160401b830492506040015b6d04ee2d6d415b85acef81000000008310611512576d04ee2d6d415b85acef8100000000830492506020015b662386f26fc10000831061153057662386f26fc10000830492506010015b6305f5e1008310611548576305f5e100830492506008015b612710831061155c57612710830492506004015b6064831061156e576064830492506002015b600a831061043f5760010192915050565b604080516001808252818301909252606091600091906020808301908036833701905050905082816000815181106115b9576115b961224f565b602090810291909101015292915050565b610f8086868686868661193d565b6001600160a01b0384163b15610f805760405163f23a6e6160e01b81526001600160a01b0385169063f23a6e619061161c90899089908890889088906004016124fc565b6020604051808303816000875af1925050508015611657575060408051601f3d908101601f1916820190925261165491810190612541565b60015b6117035761166361255e565b806308c379a00361169c575061167761257a565b80611682575061169e565b8060405162461bcd60e51b81526004016104139190611c64565b505b60405162461bcd60e51b815260206004820152603460248201527f455243313135353a207472616e7366657220746f206e6f6e2d455243313135356044820152732932b1b2b4bb32b91034b6b83632b6b2b73a32b960611b6064820152608401610413565b6001600160e01b0319811663f23a6e6160e01b14610ddc5760405162461bcd60e51b815260040161041390612603565b6001600160a01b0384163b15610f805760405163bc197c8160e01b81526001600160a01b0385169063bc197c8190611777908990899088908890889060040161264b565b6020604051808303816000875af19250505080156117b2575060408051601f3d908101601f191682019092526117af91810190612541565b60015b6117be5761166361255e565b6001600160e01b0319811663bc197c8160e01b14610ddc5760405162461bcd60e51b815260040161041390612603565b6001600160a01b0384166118145760405162461bcd60e51b8152600401610413906123b6565b81518351146118355760405162461bcd60e51b8152600401610413906123f7565b33611845816000878787876115ca565b60005b84518110156118d5578381815181106118635761186361224f565b60200260200101516000808784815181106118805761188061224f565b602002602001015181526020019081526020016000206000886001600160a01b03166001600160a01b0316815260200190815260200160002060008282546118c891906121e0565b9091555050600101611848565b50846001600160a01b031660006001600160a01b0316826001600160a01b03167f4a39dc06d4c0dbc64b70af90fd698a233a518aa5d07e595d983b8c0526c8f7fb87876040516119269291906124ce565b60405180910390a461076481600087878787611733565b6001600160a01b0385166119bb5760005b83518110156119b9578281815181106119695761196961224f565b6020026020010151600360008684815181106119875761198761224f565b6020026020010151815260200190815260200160002060008282546119ac91906121e0565b909155505060010161194e565b505b6001600160a01b038416610f805760005b8351811015610ddc5760008482815181106119e9576119e961224f565b602002602001015190506000848381518110611a0757611a0761224f565b6020026020010151905060006003600084815260200190815260200160002054905081811015611a8a5760405162461bcd60e51b815260206004820152602860248201527f455243313135353a206275726e20616d6f756e74206578636565647320746f74604482015267616c537570706c7960c01b6064820152608401610413565b600092835260036020526040909220910390556001016119cc565b80356001600160a01b0381168114611abc57600080fd5b919050565b60008060408385031215611ad457600080fd5b611add83611aa5565b946020939093013593505050565b6001600160e01b0319811681146104a657600080fd5b600060208284031215611b1357600080fd5b8135611b1e81611aeb565b9392505050565b634e487b7160e01b600052604160045260246000fd5b601f8201601f191681016001600160401b0381118282101715611b6057611b60611b25565b6040525050565b60006001600160401b03831115611b8057611b80611b25565b604051611b97601f8501601f191660200182611b3b565b809150838152848484011115611bac57600080fd5b83836020830137600060208583010152509392505050565b600060208284031215611bd657600080fd5b81356001600160401b03811115611bec57600080fd5b8201601f81018413611bfd57600080fd5b611c0c84823560208401611b67565b949350505050565b60005b83811015611c2f578181015183820152602001611c17565b50506000910152565b60008151808452611c50816020860160208601611c14565b601f01601f19169290920160200192915050565b602081526000611b1e6020830184611c38565b600060208284031215611c8957600080fd5b5035919050565b600080600060608486031215611ca557600080fd5b611cae84611aa5565b95602085013595506040909401359392505050565b60006001600160401b03821115611cdc57611cdc611b25565b5060051b60200190565b600082601f830112611cf757600080fd5b81356020611d0482611cc3565b604051611d118282611b3b565b80915083815260208101915060208460051b870101935086841115611d3557600080fd5b602086015b84811015611d515780358352918301918301611d3a565b509695505050505050565b600082601f830112611d6d57600080fd5b611b1e83833560208501611b67565b600080600080600060a08688031215611d9457600080fd5b611d9d86611aa5565b9450611dab60208701611aa5565b935060408601356001600160401b0380821115611dc757600080fd5b611dd389838a01611ce6565b94506060880135915080821115611de957600080fd5b611df589838a01611ce6565b93506080880135915080821115611e0b57600080fd5b50611e1888828901611d5c565b9150509295509295909350565b60008083601f840112611e3757600080fd5b5081356001600160401b03811115611e4e57600080fd5b6020830191508360208260051b8501011115611e6957600080fd5b9250929050565b60008060008060408587031215611e8657600080fd5b84356001600160401b0380821115611e9d57600080fd5b611ea988838901611e25565b90965094506020870135915080821115611ec257600080fd5b50611ecf87828801611e25565b95989497509550505050565b60008060408385031215611eee57600080fd5b82356001600160401b0380821115611f0557600080fd5b818501915085601f830112611f1957600080fd5b81356020611f2682611cc3565b604051611f338282611b3b565b83815260059390931b8501820192828101915089841115611f5357600080fd5b948201945b83861015611f7857611f6986611aa5565b82529482019490820190611f58565b96505086013592505080821115611f8e57600080fd5b50611f9b85828601611ce6565b9150509250929050565b60008151808452602080850194506020840160005b83811015611fd657815187529582019590820190600101611fba565b509495945050505050565b602081526000611b1e6020830184611fa5565b6000806040838503121561200757600080fd5b50508035926020909101359150565b6000806040838503121561202957600080fd5b61203283611aa5565b91506020830135801515811461204757600080fd5b809150509250929050565b60006020828403121561206457600080fd5b611b1e82611aa5565b60008060006060848603121561208257600080fd5b61208b84611aa5565b925060208401356001600160401b03808211156120a757600080fd5b6120b387838801611ce6565b935060408601359150808211156120c957600080fd5b506120d686828701611ce6565b9150509250925092565b600080604083850312156120f357600080fd5b6120fc83611aa5565b915061210a60208401611aa5565b90509250929050565b600080600080600060a0868803121561212b57600080fd5b61213486611aa5565b945061214260208701611aa5565b9350604086013592506060860135915060808601356001600160401b0381111561216b57600080fd5b611e1888828901611d5c565b600181811c9082168061218b57607f821691505b6020821081036121ab57634e487b7160e01b600052602260045260246000fd5b50919050565b600083516121c3818460208801611c14565b8351908301906121d7818360208801611c14565b01949350505050565b8082018082111561043f57634e487b7160e01b600052601160045260246000fd5b6020808252602e908201527f455243313135353a2063616c6c6572206973206e6f7420746f6b656e206f776e60408201526d195c881bdc88185c1c1c9bdd995960921b606082015260800190565b634e487b7160e01b600052603260045260246000fd5b6080815260006122786080830187611fa5565b828103602084015261228a8187611fa5565b6001600160a01b03958616604085015293909416606090920191909152509392505050565b601f821115610b6b576000816000526020600020601f850160051c810160208610156122d85750805b601f850160051c820191505b81811015610f80578281556001016122e4565b81516001600160401b0381111561231057612310611b25565b6123248161231e8454612177565b846122af565b602080601f83116001811461235957600084156123415750858301515b600019600386901b1c1916600185901b178555610f80565b600085815260208120601f198616915b8281101561238857888601518255948401946001909101908401612369565b50858210156123a65787850151600019600388901b60f8161c191681555b5050505050600190811b01905550565b60208082526021908201527f455243313135353a206d696e7420746f20746865207a65726f206164647265736040820152607360f81b606082015260800190565b60208082526028908201527f455243313135353a2069647320616e6420616d6f756e7473206c656e677468206040820152670dad2e6dac2e8c6d60c31b606082015260800190565b60208082526025908201527f455243313135353a207472616e7366657220746f20746865207a65726f206164604082015264647265737360d81b606082015260800190565b6020808252602a908201527f455243313135353a20696e73756666696369656e742062616c616e636520666f60408201526939103a3930b739b332b960b11b606082015260800190565b6040815260006124e16040830185611fa5565b82810360208401526124f38185611fa5565b95945050505050565b6001600160a01b03868116825285166020820152604081018490526060810183905260a06080820181905260009061253690830184611c38565b979650505050505050565b60006020828403121561255357600080fd5b8151611b1e81611aeb565b600060033d11156125775760046000803e5060005160e01c5b90565b600060443d10156125885790565b6040516003193d81016004833e81513d6001600160401b0381602484011181841117156125b757505050505090565b82850191508151818111156125cf5750505050505090565b843d87010160208285010111156125e95750505050505090565b6125f860208286010187611b3b565b509095945050505050565b60208082526028908201527f455243313135353a204552433131353552656365697665722072656a656374656040820152676420746f6b656e7360c01b606082015260800190565b6001600160a01b0386811682528516602082015260a06040820181905260009061267790830186611fa5565b82810360608401526126898186611fa5565b9050828103608084015261269d8185611c38565b9897505050505050505056fea26469706673582212202bed84312cbbc3fba2b969b248ab2408ad65365456ac8b537b2c7cff832bc94564736f6c63430008170033","linkReferences":{}},"methodIdentifiers":{"balanceOf(address,uint256)":"00fdd58e","balanceOfBatch(address[],uint256[])":"4e1273f4","bulkSetTraitLimit(uint256[],uint256[])":"2fb413bd","burn(address,uint256,uint256)":"f5298aca","exists(uint256)":"4f558e79","isApprovedForAll(address,address)":"e985e9c5","isMinter(address)":"aa271e1a","mint(address,uint256,uint256)":"156e29f6","mintBatch(address,uint256[],uint256[])":"d81d0a15","name()":"06fdde03","owner()":"8da5cb5b","renounceOwnership()":"715018a6","safeBatchTransferFrom(address,address,uint256[],uint256[],bytes)":"2eb2c2d6","safeTransferFrom(address,address,uint256,uint256,bytes)":"f242432a","setApprovalForAll(address,bool)":"a22cb465","setIsMinter(address,bool)":"66eb399f","setTraitLimit(uint256,uint256)":"540d22cf","setURI(string)":"02fe5305","supportsInterface(bytes4)":"01ffc9a7","symbol()":"95d89b41","totalSupply(uint256)":"bd85b039","traitLimit(uint256)":"e0a6bcdb","transferOwnership(address)":"f2fde38b","uri(uint256)":"0e89341c"},"id":12}